:100000000C9461000C947E000C947E000C947E0095
:100010000C947E000C947E000C947E000C947E0068
:100020000C947E000C947E000C947E000C947E0058
:100030000C947E000C947E000C947E000C947E0048
:100040000C9480000C947E000C947E000C947E0036
:100050000C947E000C947E000C947E000C947E0028
:100060000C947E000C947E0000000007000201004A
:100070000003040600000000000000000102040864
:100080001020408001020408102001020408102002
:10009000040404040404040402020202020203032E
:1000A00003030303000000002300260029000000D2
:1000B0000000250028002B0000000000240027007D
:1000C0002A0011241FBECFEFD8E0DEBFCDBF11E064
:1000D000A0E0B1E0E4E6F4E002C005900D92A230A9
:1000E000B107D9F711E0A2E0B1E001C01D92AB3039
:1000F000B107E1F70E942B020C9430020C9400002F
:100100001F920F920FB60F9211242F933F938F934C
:100110009F93AF93BF938091020190910301A091AF
:100120000401B091050130910A0123E0230F2D371E
:1001300020F40196A11DB11D05C026E8230F0296EB
:10014000A11DB11D20930A01809302019093030128
:10015000A0930401B09305018091060190910701DD
:10016000A0910801B09109010196A11DB11D8093D4
:10017000060190930701A0930801B0930901BF9174
:10018000AF919F918F913F912F910F900FBE0F9044
:100190001F9018952FB7F894609102017091030198
:1001A00080910401909105012FBF08953FB7F89405
:1001B0008091060190910701A0910801B091090179
:1001C00026B5A89B05C02F3F19F00196A11DB11DB2
:1001D0003FBF6627782F892F9A2F620F711D811DCF
:1001E000911D42E0660F771F881F991F4A95D1F72E
:1001F0000895CF92DF92EF92FF92CF93DF936B013E
:100200007C010E94D600EB01C114D104E104F10489
:1002100079F00E94D6006C1B7D0B683E7340A0F302
:1002200081E0C81AD108E108F108C851DC4FECCFD1
:10023000DF91CF91FF90EF90DF90CF9008950197DD
:10024000009739F0880F991F880F991F029701971F
:10025000F1F70895789484B5826084BD84B5816097
:1002600084BD85B5826085BD85B5816085BDEEE6BE
:10027000F0E0808181608083E1E8F0E0108280819D
:1002800082608083808181608083E0E8F0E080810B
:1002900081608083E1EBF0E0808184608083E0EB2B
:1002A000F0E0808181608083EAE7F0E08081846013
:1002B000808380818260808380818160808380816F
:1002C000806880831092C1000895833081F028F403
:1002D000813099F08230A1F008958630A9F08730FE
:1002E000B9F08430D1F4809180008F7D03C080917B
:1002F00080008F7780938000089584B58F7702C047
:1003000084B58F7D84BD08958091B0008F7703C040
:100310008091B0008F7D8093B0000895CF93DF93DC
:1003200090E0FC01E458FF4F2491FC01E057FF4F9F
:100330008491882349F190E0880F991FFC01E854CB
:10034000FF4FA591B49182559F4FFC01C591D49167
:100350009FB7611108C0F8948C91209582238C93EB
:10036000888182230AC0623051F4F8948C91322F34
:10037000309583238C938881822B888304C0F894E2
:100380008C91822B8C939FBFDF91CF9108950F9317
:100390001F93CF93DF931F92CDB7DEB7282F30E0A6
:1003A000F901E859FF4F8491F901E458FF4F149186
:1003B000F901E057FF4F04910023C9F0882321F091
:1003C00069830E9465016981E02FF0E0EE0FFF1F55
:1003D000E255FF4FA591B4919FB7F8948C916111AC
:1003E00003C01095812301C0812B8C939FBF0F9078
:1003F000DF91CF911F910F910895CF93DF93282F15
:1004000030E0F901E859FF4F8491F901E458FF4FBA
:10041000D491F901E057FF4FC491CC2391F08111A1
:100420000E946501EC2FF0E0EE0FFF1FEC55FF4F2F
:10043000A591B4912C912D2381E090E021F480E0EE
:1004400002C080E090E0DF91CF91089561E080915B
:1004500000010C948E010E94260280E090E0089535
:04046000F894FFCF3E
:020464000D0089
:00000001FF
